{
  "_format": "hh-sol-artifact-1",
  "contractName": "MyContract",
  "sourceName": "contracts/MyContract.sol",
  "abi": [
    {
      "inputs": [],
      "name": "contractWinner",
      "outputs": [
        {
          "internalType": "address",
          "name": "",
          "type": "address"
        }
      ],
      "stateMutability": "view",
      "type": "function"
    },
    {
      "inputs": [
        {
          "internalType": "address",
          "name": "contractAddress",
          "type": "address"
        }
      ],
      "name": "makeAttempt",
      "outputs": [],
      "stateMutability": "nonpayable",
      "type": "function"
    }
  ],
  "bytecode": "0x608060405273a1faad6a98d395b847b97fb93aee0e8e7554424e6000806101000a81548173ffffffffffffffffffffffffffffffffffffffff021916908373ffffffffffffffffffffffffffffffffffffffff16021790555034801561006457600080fd5b506101e3806100746000396000f3fe608060405234801561001057600080fd5b50600436106100365760003560e01c8063e67cf7611461003b578063f11149cd14610059575b600080fd5b610043610075565b6040516100509190610149565b60405180910390f35b610073600480360381019061006e9190610111565b610099565b005b60008054906101000a900473ffffffffffffffffffffffffffffffffffffffff1681565b8073ffffffffffffffffffffffffffffffffffffffff1663732b7a8d6040518163ffffffff1660e01b8152600401600060405180830381600087803b1580156100e157600080fd5b505af11580156100f5573d6000803e3d6000fd5b5050505050565b60008135905061010b81610196565b92915050565b60006020828403121561012357600080fd5b6000610131848285016100fc565b91505092915050565b61014381610164565b82525050565b600060208201905061015e600083018461013a565b92915050565b600061016f82610176565b9050919050565b600073ffffffffffffffffffffffffffffffffffffffff82169050919050565b61019f81610164565b81146101aa57600080fd5b5056fea2646970667358221220833b4c6eb8b0281ba3f046a044ce4274c4dda1b2911cc94b34634421182fffff64736f6c63430008000033",
  "linkReferences": {},
  "deployedLinkReferences": {}
}