{
  "_format": "hh-sol-artifact-1",
  "contractName": "ModifyVariable",
  "sourceName": "contracts/ModifyVariable.sol",
  "abi": [
    {
      "inputs": [
        {
          "internalType": "uint256",
          "name": "_x",
          "type": "uint256"
        },
        {
          "internalType": "string",
          "name": "_y",
          "type": "string"
        }
      ],
      "stateMutability": "nonpayable",
      "type": "constructor"
    },
    {
      "inputs": [
        {
          "internalType": "uint256",
          "name": "_x",
          "type": "uint256"
        }
      ],
      "name": "modifyNum",
      "outputs": [],
      "stateMutability": "nonpayable",
      "type": "function"
    },
    {
      "inputs": [
        {
          "internalType": "string",
          "name": "_y",
          "type": "string"
        }
      ],
      "name": "modifyString",
      "outputs": [
        {
          "internalType": "string",
          "name": "",
          "type": "string"
        }
      ],
      "stateMutability": "nonpayable",
      "type": "function"
    },
    {
      "inputs": [],
      "name": "modifyToLeet",
      "outputs": [],
      "stateMutability": "nonpayable",
      "type": "function"
    },
    {
      "inputs": [],
      "name": "x",
      "outputs": [
        {
          "internalType": "uint256",
          "name": "",
          "type": "uint256"
        }
      ],
      "stateMutability": "view",
      "type": "function"
    },
    {
      "inputs": [],
      "name": "y",
      "outputs": [
        {
          "internalType": "string",
          "name": "",
          "type": "string"
        }
      ],
      "stateMutability": "view",
      "type": "function"
    }
  ],
  "bytecode": "0x60806040523480156200001157600080fd5b50604051620009c3380380620009c3833981810160405281019062000037919062000198565b816000819055508060019080519060200190620000569291906200005f565b50505062000386565b8280546200006d9062000291565b90600052602060002090601f016020900481019282620000915760008555620000dd565b82601f10620000ac57805160ff1916838001178555620000dd565b82800160010185558215620000dd579182015b82811115620000dc578251825591602001919060010190620000bf565b5b509050620000ec9190620000f0565b5090565b5b808211156200010b576000816000905550600101620000f1565b5090565b60006200012662000120846200021b565b620001f2565b9050828152602081018484840111156200013f57600080fd5b6200014c8482856200025b565b509392505050565b600082601f8301126200016657600080fd5b8151620001788482602086016200010f565b91505092915050565b60008151905062000192816200036c565b92915050565b60008060408385031215620001ac57600080fd5b6000620001bc8582860162000181565b925050602083015167ffffffffffffffff811115620001da57600080fd5b620001e88582860162000154565b9150509250929050565b6000620001fe62000211565b90506200020c8282620002c7565b919050565b6000604051905090565b600067ffffffffffffffff8211156200023957620002386200032c565b5b62000244826200035b565b9050602081019050919050565b6000819050919050565b60005b838110156200027b5780820151818401526020810190506200025e565b838111156200028b576000848401525b50505050565b60006002820490506001821680620002aa57607f821691505b60208210811415620002c157620002c0620002fd565b5b50919050565b620002d2826200035b565b810181811067ffffffffffffffff82111715620002f457620002f36200032c565b5b80604052505050565b7f4e487b7100000000000000000000000000000000000000000000000000000000600052602260045260246000fd5b7f4e487b7100000000000000000000000000000000000000000000000000000000600052604160045260246000fd5b6000601f19601f8301169050919050565b620003778162000251565b81146200038357600080fd5b50565b61062d80620003966000396000f3fe608060405234801561001057600080fd5b50600436106100565760003560e01c8062a9537d1461005b5780630c55699c14610077578063a56dfe4a14610095578063e1640622146100b3578063f9716dc8146100bd575b600080fd5b610075600480360381019061007091906103a2565b6100ed565b005b61007f6100f7565b60405161008c9190610435565b60405180910390f35b61009d6100fd565b6040516100aa9190610413565b60405180910390f35b6100bb61018b565b005b6100d760048036038101906100d29190610361565b610196565b6040516100e49190610413565b60405180910390f35b8060008190555050565b60005481565b6001805461010a9061050e565b80601f01602080910402602001604051908101604052809291908181526020018280546101369061050e565b80156101835780601f1061015857610100808354040283529160200191610183565b820191906000526020600020905b81548152906001019060200180831161016657829003601f168201915b505050505081565b610539600081905550565b606081600190805190602001906101ae929190610241565b50600180546101bc9061050e565b80601f01602080910402602001604051908101604052809291908181526020018280546101e89061050e565b80156102355780601f1061020a57610100808354040283529160200191610235565b820191906000526020600020905b81548152906001019060200180831161021857829003601f168201915b50505050509050919050565b82805461024d9061050e565b90600052602060002090601f01602090048101928261026f57600085556102b6565b82601f1061028857805160ff19168380011785556102b6565b828001600101855582156102b6579182015b828111156102b557825182559160200191906001019061029a565b5b5090506102c391906102c7565b5090565b5b808211156102e05760008160009055506001016102c8565b5090565b60006102f76102f284610475565b610450565b90508281526020810184848401111561030f57600080fd5b61031a8482856104cc565b509392505050565b600082601f83011261033357600080fd5b81356103438482602086016102e4565b91505092915050565b60008135905061035b816105e0565b92915050565b60006020828403121561037357600080fd5b600082013567ffffffffffffffff81111561038d57600080fd5b61039984828501610322565b91505092915050565b6000602082840312156103b457600080fd5b60006103c28482850161034c565b91505092915050565b60006103d6826104a6565b6103e081856104b1565b93506103f08185602086016104db565b6103f9816105cf565b840191505092915050565b61040d816104c2565b82525050565b6000602082019050818103600083015261042d81846103cb565b905092915050565b600060208201905061044a6000830184610404565b92915050565b600061045a61046b565b90506104668282610540565b919050565b6000604051905090565b600067ffffffffffffffff8211156104905761048f6105a0565b5b610499826105cf565b9050602081019050919050565b600081519050919050565b600082825260208201905092915050565b6000819050919050565b82818337600083830152505050565b60005b838110156104f95780820151818401526020810190506104de565b83811115610508576000848401525b50505050565b6000600282049050600182168061052657607f821691505b6020821081141561053a57610539610571565b5b50919050565b610549826105cf565b810181811067ffffffffffffffff82111715610568576105676105a0565b5b80604052505050565b7f4e487b7100000000000000000000000000000000000000000000000000000000600052602260045260246000fd5b7f4e487b7100000000000000000000000000000000000000000000000000000000600052604160045260246000fd5b6000601f19601f8301169050919050565b6105e9816104c2565b81146105f457600080fd5b5056fea264697066735822122014d9d6b6be06edda95d089aac1dabf7f7f9487b81c6f5bfacb3ee36e519cf1ff64736f6c63430008040033",
  "linkReferences": {},
  "deployedLinkReferences": {}
}